:100000000C9446000C945D000C945D000C945D0013
:100010000C945D000C945D000C945D000C945D00EC
:100020000C945D000C945D000C945D000C945D00DC
:100030000C945D000C945D000C945D000C945D00CC
:100040000C945D000C945D000C945D000C945D00BC
:100050000C945D000C945D000C945D000C945D00AC
:100060000C945D000C945D000C945D000C945D009C
:100070000C945D000C945D000C945D000C945D008C
:100080000C945D000C945D000C945D0011241FBE67
:10009000CFEFD0E1DEBFCDBF11E0A0E0B1E0E8EAF4
:1000A000F1E000E00BBF02C007900D92A232B10751
:1000B000D9F70E94C1000C94D2000C940000E4EF28
:1000C000F1E03197F1F7E2E3F0E090819E7F9083D9
:1000D00090819D7F908390819B7F908383B9808165
:1000E0008460808380818B7F8083089584EF91E09A
:1000F0000197F1F78FEF81BB82B986E00E945F0024
:100100008CE00E945F0088E30E945F000895E4EFA6
:10011000F1E03197F1F7882321F480E80E945F0035
:100120000895813019F480EC0E945F000895E4EF97
:10013000F1E03197F1F7E2E3F0E090819160908394
:1001400090819D7F908390819B7F908383B98081F4
:100150008460808380818B7F80830895CF93DF9339
:10016000EC0184EF91E00197F1F78881882331F069
:100170000E949700219688818823D1F7DF91CF9143
:1001800008950E94760080E00E94870080E091E060
:100190000E94AE0081E00E94870080E191E00E9411
:0801A000AE00FFCFF894FFCF81
:1001A800202048656C6C6F20576F726C64202000AB
:1001B800204D6963726F2050726F63657373657247
:0201C800200015
:00000001FF
