:100000000C9446000C945D000C945D000C945D0013
:100010000C945D000C945D000C945D000C945D00EC
:100020000C945D000C945D000C945D000C945D00DC
:100030000C945D000C945D000C945D000C945D00CC
:100040000C945D000C945D000C945D000C945D00BC
:100050000C945D000C945D000C945D000C945D00AC
:100060000C945D000C945D000C945D000C945D009C
:100070000C945D000C945D000C945D000C945D008C
:100080000C945D000C945D000C945D0011241FBE67
:10009000CFEFD0E1DEBFCDBF11E0A0E0B1E0E6ECF4
:1000A000F1E000E00BBF02C007900D92A432B1074F
:1000B000D9F70E94CC000C94E1000C940000E4EF0E
:1000C000F1E03197F1F7E2E3F0E090819E7F9083D9
:1000D00090819D7F908390819B7F908383B9808165
:1000E0008460808380818B7F8083089584EF91E09A
:1000F0000197F1F78FEF82B981BB86E00E945F0024
:100100008CE00E945F0088E30E945F00089584EF06
:1001100091E00197F1F781E00E945F0082E00E9488
:100120005F000895E4EFF1E03197F1F7E2E3F0E0EA
:1001300090819160908390819D7F908390819B7F3F
:10014000908383B980818460808380818B7F80836A
:100150000895CF93DF93EC0184EF91E00197F1F7DD
:100160008881882331F00E9492002196888188231B
:10017000D1F7DF91CF910895E4EFF1E03197F1F7F6
:10018000662321F480580E945F000895613019F4BD
:1001900080540E945F0008950E9476000E948700AC
:1001A00080E060E00E94BC0080E091E00E94A90035
:1001B00080E061E00E94BC0082E191E00E94A90021
:0601C000FFCFF894FFCF11
:1001C60020202020416C6C202041626F7574202015
:1001D60020002020202020436972637569747320F3
:0401E60020200000D5
:00000001FF
