:100000000C9446000C945D000C945D000C945D0013
:100010000C945D000C945D000C945D000C945D00EC
:100020000C945D000C945D000C945D000C945D00DC
:100030000C945D000C945D000C945D000C945D00CC
:100040000C945D000C945D000C945D000C945D00BC
:100050000C945D000C945D000C945D000C945D00AC
:100060000C945D000C945D000C945D000C945D009C
:100070000C945D000C945D000C945D000C945D008C
:100080000C945D000C945D000C945D0011241FBE67
:10009000CFEFD0E1DEBFCDBF11E0A0E0B1E0E0EFF7
:1000A000F0E000E00BBF02C007900D92A030B10756
:1000B000D9F70E945F000C9476000C940000CF9357
:1000C000DF938FEF81BB82B980936100C2E3D0E000
:1000D0005BE5252FA3E2B0E036E6932FE2E6F0E001
:1000E0004DE7842F28839C938083FCCFF894FFCF27
:00000001FF
