:100000000C9446000C945F000C946D000C947800E6
:100010000C9486000C945D000C945D000C945D00C3
:100020000C945D000C945D000C945D000C945D00DC
:100030000C945D000C945D000C945D000C945D00CC
:100040000C945D000C945D000C945D000C945D00BC
:100050000C945D000C945D000C945D000C945D00AC
:100060000C945D000C945D000C945D000C945D009C
:100070000C945D000C945D000C945D000C945D008C
:100080000C945D000C945D000C945D0011241FBE67
:10009000CFEFD0E1DEBFCDBF11E0A0E0B1E0EEECEC
:1000A000F1E000E00BBF02C007900D92A030B10755
:1000B000D9F70E94DB000C94E5000C9400001F921D
:1000C0000F920FB60F9211248F938FEF8BBB8F91EE
:1000D0000F900FBE0F901F9018951F920F920FB6A2
:1000E0000F9211241BBA0F900FBE0F901F901895FE
:1000F0001F920F920FB60F9211248F938AEA8BBB37
:100100008F910F900FBE0F901F9018951F920F9216
:100110000FB60F920BB60F921124FF920F931F93FD
:100120002F933F934F935F936F937F938F939F93FF
:10013000AF93BF93CF93DF93EF93FF93E0E0F0E0B3
:10014000ABE3B0E00F2EFAEAFF2EF02D0F2DC8EB37
:10015000DBE040E951E0CA01742F692F15E50C93EB
:100160009E01CA010197F1F721503040D1F71C934D
:100170009E01CA010197F1F721503040D1F7319625
:10018000E530F10561F7FF91EF91DF91CF91BF91DC
:10019000AF919F918F917F916F915F914F913F911F
:1001A0002F911F910F91FF900F900BBE0F900FBEDC
:1001B0000F901F9018958FEF8ABB8AEF80936A008B
:0E01C0008FE089BF80E88FBFFFCFF894FFCF9C
:00000001FF
